{
  "contractName": "Donation",
  "abi": [
    {
      "inputs": [],
      "stateMutability": "nonpayable",
      "type": "constructor"
    },
    {
      "inputs": [],
      "name": "cannotCreateMultiplePost",
      "type": "error"
    },
    {
      "inputs": [],
      "name": "noPostForAddress",
      "type": "error"
    },
    {
      "inputs": [
        {
          "internalType": "address",
          "name": "",
          "type": "address"
        }
      ],
      "name": "havePost",
      "outputs": [
        {
          "internalType": "bool",
          "name": "",
          "type": "bool"
        }
      ],
      "stateMutability": "view",
      "type": "function",
      "constant": true
    },
    {
      "inputs": [],
      "name": "nPosts",
      "outputs": [
        {
          "internalType": "uint256",
          "name": "",
          "type": "uint256"
        }
      ],
      "stateMutability": "view",
      "type": "function",
      "constant": true
    },
    {
      "inputs": [
        {
          "internalType": "address",
          "name": "",
          "type": "address"
        }
      ],
      "name": "posts",
      "outputs": [
        {
          "internalType": "uint256",
          "name": "id",
          "type": "uint256"
        },
        {
          "internalType": "uint256",
          "name": "amount_needed",
          "type": "uint256"
        },
        {
          "internalType": "uint256",
          "name": "amount_raised",
          "type": "uint256"
        },
        {
          "internalType": "string",
          "name": "title",
          "type": "string"
        },
        {
          "internalType": "string",
          "name": "content",
          "type": "string"
        },
        {
          "internalType": "string",
          "name": "photo_url",
          "type": "string"
        },
        {
          "internalType": "address payable",
          "name": "reciever",
          "type": "address"
        }
      ],
      "stateMutability": "view",
      "type": "function",
      "constant": true
    },
    {
      "inputs": [
        {
          "internalType": "address",
          "name": "reciever",
          "type": "address"
        },
        {
          "internalType": "uint256",
          "name": "amount",
          "type": "uint256"
        }
      ],
      "name": "donate",
      "outputs": [],
      "stateMutability": "nonpayable",
      "type": "function"
    },
    {
      "inputs": [
        {
          "internalType": "uint256",
          "name": "amount_needed",
          "type": "uint256"
        },
        {
          "internalType": "string",
          "name": "title",
          "type": "string"
        },
        {
          "internalType": "string",
          "name": "content",
          "type": "string"
        },
        {
          "internalType": "string",
          "name": "photo_url",
          "type": "string"
        }
      ],
      "name": "makePost",
      "outputs": [],
      "stateMutability": "nonpayable",
      "type": "function"
    },
    {
      "inputs": [
        {
          "internalType": "address",
          "name": "usr",
          "type": "address"
        }
      ],
      "name": "get",
      "outputs": [
        {
          "internalType": "uint256",
          "name": "id",
          "type": "uint256"
        },
        {
          "internalType": "string",
          "name": "title",
          "type": "string"
        },
        {
          "internalType": "string",
          "name": "content",
          "type": "string"
        },
        {
          "internalType": "string",
          "name": "photo_url",
          "type": "string"
        },
        {
          "internalType": "address payable",
          "name": "reciever",
          "type": "address"
        }
      ],
      "stateMutability": "view",
      "type": "function",
      "constant": true
    }
  ],
  "bytecode": "0x608060405234801561001057600080fd5b506000808190555061119e806100276000396000f3fe608060405234801561001057600080fd5b50600436106100625760003560e01c806303eaf317146100675780631fff8b391461009d5780633061b55d146100bb578063610a0dfb146100eb578063c2bc2efc14610107578063e69d849d1461013b575b600080fd5b610081600480360381019061007c9190610ba2565b610157565b6040516100949796959493929190610ca2565b60405180910390f35b6100a5610351565b6040516100b29190610d26565b60405180910390f35b6100d560048036038101906100d09190610ba2565b610357565b6040516100e29190610d5c565b60405180910390f35b61010560048036038101906101009190610ed8565b610377565b005b610121600480360381019061011c9190610ba2565b6105c0565b604051610132959493929190610f93565b60405180910390f35b61015560048036038101906101509190610ffb565b610966565b005b600160205280600052604060002060009150905080600001549080600101549080600201549080600301805461018c9061106a565b80601f01602080910402602001604051908101604052809291908181526020018280546101b89061106a565b80156102055780601f106101da57610100808354040283529160200191610205565b820191906000526020600020905b8154815290600101906020018083116101e857829003601f168201915b50505050509080600401805461021a9061106a565b80601f01602080910402602001604051908101604052809291908181526020018280546102469061106a565b80156102935780601f1061026857610100808354040283529160200191610293565b820191906000526020600020905b81548152906001019060200180831161027657829003601f168201915b5050505050908060050180546102a89061106a565b80601f01602080910402602001604051908101604052809291908181526020018280546102d49061106a565b80156103215780601f106102f657610100808354040283529160200191610321565b820191906000526020600020905b81548152906001019060200180831161030457829003601f168201915b5050505050908060060160009054906101000a900473ffffffffffffffffffffffffffffffffffffffff16905087565b60005481565b60026020528060005260406000206000915054906101000a900460ff1681565b600260003373ffffffffffffffffffffffffffffffffffffffff1673ffffffffffffffffffffffffffffffffffffffff16815260200190815260200160002060009054906101000a900460ff16156103fb576040517fc9686aed00000000000000000000000000000000000000000000000000000000815260040160405180910390fd5b60008081548092919061040d906110ca565b919050555060006040518060e001604052806000548152602001868152602001600081526020018581526020018481526020018381526020013373ffffffffffffffffffffffffffffffffffffffff16815250905080600160003373ffffffffffffffffffffffffffffffffffffffff1673ffffffffffffffffffffffffffffffffffffffff16815260200190815260200160002060008201518160000155602082015181600101556040820151816002015560608201518160030190805190602001906104dc929190610a8d565b5060808201518160040190805190602001906104f9929190610a8d565b5060a0820151816005019080519060200190610516929190610a8d565b5060c08201518160060160006101000a81548173ffffffffffffffffffffffffffffffffffffffff021916908373ffffffffffffffffffffffffffffffffffffffff1602179055509050506001600260003373ffffffffffffffffffffffffffffffffffffffff1673ffffffffffffffffffffffffffffffffffffffff16815260200190815260200160002060006101000a81548160ff0219169083151502179055505050505050565b600060608060606000600260008773ffffffffffffffffffffffffffffffffffffffff1673ffffffffffffffffffffffffffffffffffffffff16815260200190815260200160002060009054906101000a900460ff1661064c576040517f4557ab1800000000000000000000000000000000000000000000000000000000815260040160405180910390fd5b600160008773ffffffffffffffffffffffffffffffffffffffff1673ffffffffffffffffffffffffffffffffffffffff168152602001908152602001600020600001549450600160008773ffffffffffffffffffffffffffffffffffffffff1673ffffffffffffffffffffffffffffffffffffffff16815260200190815260200160002060030180546106de9061106a565b80601f016020809104026020016040519081016040528092919081815260200182805461070a9061106a565b80156107575780601f1061072c57610100808354040283529160200191610757565b820191906000526020600020905b81548152906001019060200180831161073a57829003601f168201915b50505050509350600160008773ffffffffffffffffffffffffffffffffffffffff1673ffffffffffffffffffffffffffffffffffffffff16815260200190815260200160002060040180546107ab9061106a565b80601f01602080910402602001604051908101604052809291908181526020018280546107d79061106a565b80156108245780601f106107f957610100808354040283529160200191610824565b820191906000526020600020905b81548152906001019060200180831161080757829003601f168201915b50505050509250600160008773ffffffffffffffffffffffffffffffffffffffff1673ffffffffffffffffffffffffffffffffffffffff16815260200190815260200160002060050180546108789061106a565b80601f01602080910402602001604051908101604052809291908181526020018280546108a49061106a565b80156108f15780601f106108c6576101008083540402835291602001916108f1565b820191906000526020600020905b8154815290600101906020018083116108d457829003601f168201915b50505050509150600160008773ffffffffffffffffffffffffffffffffffffffff1673ffffffffffffffffffffffffffffffffffffffff16815260200190815260200160002060060160009054906101000a900473ffffffffffffffffffffffffffffffffffffffff16905091939590929450565b600260003373ffffffffffffffffffffffffffffffffffffffff1673ffffffffffffffffffffffffffffffffffffffff16815260200190815260200160002060009054906101000a900460ff166109e9576040517f4557ab1800000000000000000000000000000000000000000000000000000000815260040160405180910390fd5b8173ffffffffffffffffffffffffffffffffffffffff166108fc829081150290604051600060405180830381858888f19350505050158015610a2f573d6000803e3d6000fd5b5080600160008473ffffffffffffffffffffffffffffffffffffffff1673ffffffffffffffffffffffffffffffffffffffff1681526020019081526020016000206002016000828254610a829190611112565b925050819055505050565b828054610a999061106a565b90600052602060002090601f016020900481019282610abb5760008555610b02565b82601f10610ad457805160ff1916838001178555610b02565b82800160010185558215610b02579182015b82811115610b01578251825591602001919060010190610ae6565b5b509050610b0f9190610b13565b5090565b5b80821115610b2c576000816000905550600101610b14565b5090565b6000604051905090565b600080fd5b600080fd5b600073ffffffffffffffffffffffffffffffffffffffff82169050919050565b6000610b6f82610b44565b9050919050565b610b7f81610b64565b8114610b8a57600080fd5b50565b600081359050610b9c81610b76565b92915050565b600060208284031215610bb857610bb7610b3a565b5b6000610bc684828501610b8d565b91505092915050565b6000819050919050565b610be281610bcf565b82525050565b600081519050919050565b600082825260208201905092915050565b60005b83811015610c22578082015181840152602081019050610c07565b83811115610c31576000848401525b50505050565b6000601f19601f8301169050919050565b6000610c5382610be8565b610c5d8185610bf3565b9350610c6d818560208601610c04565b610c7681610c37565b840191505092915050565b6000610c8c82610b44565b9050919050565b610c9c81610c81565b82525050565b600060e082019050610cb7600083018a610bd9565b610cc46020830189610bd9565b610cd16040830188610bd9565b8181036060830152610ce38187610c48565b90508181036080830152610cf78186610c48565b905081810360a0830152610d0b8185610c48565b9050610d1a60c0830184610c93565b98975050505050505050565b6000602082019050610d3b6000830184610bd9565b92915050565b60008115159050919050565b610d5681610d41565b82525050565b6000602082019050610d716000830184610d4d565b92915050565b610d8081610bcf565b8114610d8b57600080fd5b50565b600081359050610d9d81610d77565b92915050565b600080fd5b600080fd5b7f4e487b7100000000000000000000000000000000000000000000000000000000600052604160045260246000fd5b610de582610c37565b810181811067ffffffffffffffff82111715610e0457610e03610dad565b5b80604052505050565b6000610e17610b30565b9050610e238282610ddc565b919050565b600067ffffffffffffffff821115610e4357610e42610dad565b5b610e4c82610c37565b9050602081019050919050565b82818337600083830152505050565b6000610e7b610e7684610e28565b610e0d565b905082815260208101848484011115610e9757610e96610da8565b5b610ea2848285610e59565b509392505050565b600082601f830112610ebf57610ebe610da3565b5b8135610ecf848260208601610e68565b91505092915050565b60008060008060808587031215610ef257610ef1610b3a565b5b6000610f0087828801610d8e565b945050602085013567ffffffffffffffff811115610f2157610f20610b3f565b5b610f2d87828801610eaa565b935050604085013567ffffffffffffffff811115610f4e57610f4d610b3f565b5b610f5a87828801610eaa565b925050606085013567ffffffffffffffff811115610f7b57610f7a610b3f565b5b610f8787828801610eaa565b91505092959194509250565b600060a082019050610fa86000830188610bd9565b8181036020830152610fba8187610c48565b90508181036040830152610fce8186610c48565b90508181036060830152610fe28185610c48565b9050610ff16080830184610c93565b9695505050505050565b6000806040838503121561101257611011610b3a565b5b600061102085828601610b8d565b925050602061103185828601610d8e565b9150509250929050565b7f4e487b7100000000000000000000000000000000000000000000000000000000600052602260045260246000fd5b6000600282049050600182168061108257607f821691505b6020821081036110955761109461103b565b5b50919050565b7f4e487b7100000000000000000000000000000000000000000000000000000000600052601160045260246000fd5b60006110d582610bcf565b91507fffffffffffffffffffffffffffffffffffffffffffffffffffffffffffffffff82036111075761110661109b565b5b600182019050919050565b600061111d82610bcf565b915061112883610bcf565b9250827fffffffffffffffffffffffffffffffffffffffffffffffffffffffffffffffff0382111561115d5761115c61109b565b5b82820190509291505056fea264697066735822122000451035e86d30ec67796c84eabf0d707d79c53f9a61631ca1540963dbe7690864736f6c634300080d0033",
  "immutableReferences": {},
  "source": "// SPDX-License-Identifier: MIT\npragma solidity >=0.4.21 <0.8.14;\n\ncontract Donation {\n\n  uint public nPosts;\n  struct Post{\n      uint id;\n      uint amount_needed;\n      uint amount_raised;\n      string title;\n      string content;\n      string photo_url;\n      address payable reciever;\n  }\n\n  mapping(address => Post) public posts;\n\n  mapping(address => bool) public havePost;\n\n  error noPostForAddress();\n\n  function donate(address reciever, uint amount) public {\n    if (!havePost[msg.sender]){\n      revert noPostForAddress();\n    }\n    payable(reciever).transfer(amount);\n    posts[reciever].amount_raised += amount;\n  }\n\n\n  error cannotCreateMultiplePost();\n  function makePost(uint amount_needed, string memory title, string memory content, string memory photo_url) public {\n    if (havePost[msg.sender]){\n      revert cannotCreateMultiplePost();\n    }\n    nPosts++;\n    Post memory post = Post(nPosts, amount_needed, 0, title, content, photo_url, payable(msg.sender));\n    posts[msg.sender] = post;\n    havePost[msg.sender] = true;\n  }\n  \n  function get(address usr) public view returns (uint id, string memory title, string memory content,\n    string memory photo_url, address payable reciever) {\n    if (!havePost[usr]) {\n      revert noPostForAddress();\n    }\n    id = posts[usr].id;\n    title = posts[usr].title;\n    content = posts[usr].content;\n    photo_url = posts[usr].photo_url;\n    reciever = posts[usr].reciever;\n  }\n  constructor() {\n    nPosts = 0;\n  }\n}",
  "sourcePath": "/home/hongzhe/BitFund/contracts/Donation.sol",
  "compiler": {
    "name": "solc",
    "version": "0.8.13+commit.abaa5c0e.Emscripten.clang"
  },
  "schemaVersion": "3.4.7",
  "updatedAt": "2022-04-17T11:25:04.942Z",
  "networkType": "ethereum",
  "devdoc": {
    "kind": "dev",
    "methods": {},
    "version": 1
  },
  "userdoc": {
    "kind": "user",
    "methods": {},
    "version": 1
  }
}