{
  "contractName": "Donation",
  "abi": [
    {
      "inputs": [],
      "stateMutability": "nonpayable",
      "type": "constructor"
    },
    {
      "inputs": [],
      "name": "cannotCreateMultiplePost",
      "type": "error"
    },
    {
      "inputs": [],
      "name": "noPostForAddress",
      "type": "error"
    },
    {
      "inputs": [
        {
          "internalType": "address",
          "name": "",
          "type": "address"
        }
      ],
      "name": "havePost",
      "outputs": [
        {
          "internalType": "bool",
          "name": "",
          "type": "bool"
        }
      ],
      "stateMutability": "view",
      "type": "function"
    },
    {
      "inputs": [],
      "name": "nPosts",
      "outputs": [
        {
          "internalType": "uint256",
          "name": "",
          "type": "uint256"
        }
      ],
      "stateMutability": "view",
      "type": "function"
    },
    {
      "inputs": [
        {
          "internalType": "address",
          "name": "",
          "type": "address"
        }
      ],
      "name": "posts",
      "outputs": [
        {
          "internalType": "uint256",
          "name": "id",
          "type": "uint256"
        },
        {
          "internalType": "uint256",
          "name": "amount_needed",
          "type": "uint256"
        },
        {
          "internalType": "uint256",
          "name": "amount_raised",
          "type": "uint256"
        },
        {
          "internalType": "string",
          "name": "title",
          "type": "string"
        },
        {
          "internalType": "string",
          "name": "content",
          "type": "string"
        },
        {
          "internalType": "string",
          "name": "photo_url",
          "type": "string"
        },
        {
          "internalType": "address payable",
          "name": "reciever",
          "type": "address"
        }
      ],
      "stateMutability": "view",
      "type": "function"
    },
    {
      "inputs": [
        {
          "internalType": "address",
          "name": "reciever",
          "type": "address"
        },
        {
          "internalType": "uint256",
          "name": "amount",
          "type": "uint256"
        }
      ],
      "name": "donate",
      "outputs": [],
      "stateMutability": "nonpayable",
      "type": "function"
    },
    {
      "inputs": [
        {
          "internalType": "uint256",
          "name": "amount_needed",
          "type": "uint256"
        },
        {
          "internalType": "string",
          "name": "title",
          "type": "string"
        },
        {
          "internalType": "string",
          "name": "content",
          "type": "string"
        },
        {
          "internalType": "string",
          "name": "photo_url",
          "type": "string"
        }
      ],
      "name": "makePost",
      "outputs": [],
      "stateMutability": "nonpayable",
      "type": "function"
    },
    {
      "inputs": [
        {
          "internalType": "address",
          "name": "usr",
          "type": "address"
        }
      ],
      "name": "get",
      "outputs": [
        {
          "internalType": "uint256",
          "name": "id",
          "type": "uint256"
        },
        {
          "internalType": "string",
          "name": "title",
          "type": "string"
        },
        {
          "internalType": "string",
          "name": "content",
          "type": "string"
        },
        {
          "internalType": "string",
          "name": "photo_url",
          "type": "string"
        },
        {
          "internalType": "address payable",
          "name": "reciever",
          "type": "address"
        }
      ],
      "stateMutability": "view",
      "type": "function"
    }
  ],
  "bytecode": "0x608060405234801561001057600080fd5b50600080819055506111a0806100276000396000f3fe608060405234801561001057600080fd5b50600436106100625760003560e01c806303eaf317146100675780631fff8b391461009d5780633061b55d146100bb578063610a0dfb146100eb578063c2bc2efc14610107578063e69d849d1461013b575b600080fd5b610081600480360381019061007c9190610bca565b610157565b6040516100949796959493929190610df6565b60405180910390f35b6100a5610351565b6040516100b29190610d73565b60405180910390f35b6100d560048036038101906100d09190610bca565b610357565b6040516100e29190610d58565b60405180910390f35b61010560048036038101906101009190610c37565b610377565b005b610121600480360381019061011c9190610bca565b6105c0565b604051610132959493929190610d8e565b60405180910390f35b61015560048036038101906101509190610bf7565b610966565b005b600160205280600052604060002060009150905080600001549080600101549080600201549080600301805461018c90610fde565b80601f01602080910402602001604051908101604052809291908181526020018280546101b890610fde565b80156102055780601f106101da57610100808354040283529160200191610205565b820191906000526020600020905b8154815290600101906020018083116101e857829003601f168201915b50505050509080600401805461021a90610fde565b80601f016020809104026020016040519081016040528092919081815260200182805461024690610fde565b80156102935780601f1061026857610100808354040283529160200191610293565b820191906000526020600020905b81548152906001019060200180831161027657829003601f168201915b5050505050908060050180546102a890610fde565b80601f01602080910402602001604051908101604052809291908181526020018280546102d490610fde565b80156103215780601f106102f657610100808354040283529160200191610321565b820191906000526020600020905b81548152906001019060200180831161030457829003601f168201915b5050505050908060060160009054906101000a900473ffffffffffffffffffffffffffffffffffffffff16905087565b60005481565b60026020528060005260406000206000915054906101000a900460ff1681565b600260003373ffffffffffffffffffffffffffffffffffffffff1673ffffffffffffffffffffffffffffffffffffffff16815260200190815260200160002060009054906101000a900460ff16156103fb576040517fc9686aed00000000000000000000000000000000000000000000000000000000815260040160405180910390fd5b60008081548092919061040d90611041565b919050555060006040518060e001604052806000548152602001868152602001600081526020018581526020018481526020018381526020013373ffffffffffffffffffffffffffffffffffffffff16815250905080600160003373ffffffffffffffffffffffffffffffffffffffff1673ffffffffffffffffffffffffffffffffffffffff16815260200190815260200160002060008201518160000155602082015181600101556040820151816002015560608201518160030190805190602001906104dc929190610a8d565b5060808201518160040190805190602001906104f9929190610a8d565b5060a0820151816005019080519060200190610516929190610a8d565b5060c08201518160060160006101000a81548173ffffffffffffffffffffffffffffffffffffffff021916908373ffffffffffffffffffffffffffffffffffffffff1602179055509050506001600260003373ffffffffffffffffffffffffffffffffffffffff1673ffffffffffffffffffffffffffffffffffffffff16815260200190815260200160002060006101000a81548160ff0219169083151502179055505050505050565b600060608060606000600260008773ffffffffffffffffffffffffffffffffffffffff1673ffffffffffffffffffffffffffffffffffffffff16815260200190815260200160002060009054906101000a900460ff1661064c576040517f4557ab1800000000000000000000000000000000000000000000000000000000815260040160405180910390fd5b600160008773ffffffffffffffffffffffffffffffffffffffff1673ffffffffffffffffffffffffffffffffffffffff168152602001908152602001600020600001549450600160008773ffffffffffffffffffffffffffffffffffffffff1673ffffffffffffffffffffffffffffffffffffffff16815260200190815260200160002060030180546106de90610fde565b80601f016020809104026020016040519081016040528092919081815260200182805461070a90610fde565b80156107575780601f1061072c57610100808354040283529160200191610757565b820191906000526020600020905b81548152906001019060200180831161073a57829003601f168201915b50505050509350600160008773ffffffffffffffffffffffffffffffffffffffff1673ffffffffffffffffffffffffffffffffffffffff16815260200190815260200160002060040180546107ab90610fde565b80601f01602080910402602001604051908101604052809291908181526020018280546107d790610fde565b80156108245780601f106107f957610100808354040283529160200191610824565b820191906000526020600020905b81548152906001019060200180831161080757829003601f168201915b50505050509250600160008773ffffffffffffffffffffffffffffffffffffffff1673ffffffffffffffffffffffffffffffffffffffff168152602001908152602001600020600501805461087890610fde565b80601f01602080910402602001604051908101604052809291908181526020018280546108a490610fde565b80156108f15780601f106108c6576101008083540402835291602001916108f1565b820191906000526020600020905b8154815290600101906020018083116108d457829003601f168201915b50505050509150600160008773ffffffffffffffffffffffffffffffffffffffff1673ffffffffffffffffffffffffffffffffffffffff16815260200190815260200160002060060160009054906101000a900473ffffffffffffffffffffffffffffffffffffffff16905091939590929450565b600260003373ffffffffffffffffffffffffffffffffffffffff1673ffffffffffffffffffffffffffffffffffffffff16815260200190815260200160002060009054906101000a900460ff166109e9576040517f4557ab1800000000000000000000000000000000000000000000000000000000815260040160405180910390fd5b8173ffffffffffffffffffffffffffffffffffffffff166108fc829081150290604051600060405180830381858888f19350505050158015610a2f573d6000803e3d6000fd5b5080600160008473ffffffffffffffffffffffffffffffffffffffff1673ffffffffffffffffffffffffffffffffffffffff1681526020019081526020016000206002016000828254610a829190610eec565b925050819055505050565b828054610a9990610fde565b90600052602060002090601f016020900481019282610abb5760008555610b02565b82601f10610ad457805160ff1916838001178555610b02565b82800160010185558215610b02579182015b82811115610b01578251825591602001919060010190610ae6565b5b509050610b0f9190610b13565b5090565b5b80821115610b2c576000816000905550600101610b14565b5090565b6000610b43610b3e84610e9f565b610e7a565b905082815260208101848484011115610b5f57610b5e61111c565b5b610b6a848285610f9c565b509392505050565b600081359050610b818161113c565b92915050565b600082601f830112610b9c57610b9b611117565b5b8135610bac848260208601610b30565b91505092915050565b600081359050610bc481611153565b92915050565b600060208284031215610be057610bdf611126565b5b6000610bee84828501610b72565b91505092915050565b60008060408385031215610c0e57610c0d611126565b5b6000610c1c85828601610b72565b9250506020610c2d85828601610bb5565b9150509250929050565b60008060008060808587031215610c5157610c50611126565b5b6000610c5f87828801610bb5565b945050602085013567ffffffffffffffff811115610c8057610c7f611121565b5b610c8c87828801610b87565b935050604085013567ffffffffffffffff811115610cad57610cac611121565b5b610cb987828801610b87565b925050606085013567ffffffffffffffff811115610cda57610cd9611121565b5b610ce687828801610b87565b91505092959194509250565b610cfb81610f54565b82525050565b610d0a81610f66565b82525050565b6000610d1b82610ed0565b610d258185610edb565b9350610d35818560208601610fab565b610d3e8161112b565b840191505092915050565b610d5281610f92565b82525050565b6000602082019050610d6d6000830184610d01565b92915050565b6000602082019050610d886000830184610d49565b92915050565b600060a082019050610da36000830188610d49565b8181036020830152610db58187610d10565b90508181036040830152610dc98186610d10565b90508181036060830152610ddd8185610d10565b9050610dec6080830184610cf2565b9695505050505050565b600060e082019050610e0b600083018a610d49565b610e186020830189610d49565b610e256040830188610d49565b8181036060830152610e378187610d10565b90508181036080830152610e4b8186610d10565b905081810360a0830152610e5f8185610d10565b9050610e6e60c0830184610cf2565b98975050505050505050565b6000610e84610e95565b9050610e908282611010565b919050565b6000604051905090565b600067ffffffffffffffff821115610eba57610eb96110e8565b5b610ec38261112b565b9050602081019050919050565b600081519050919050565b600082825260208201905092915050565b6000610ef782610f92565b9150610f0283610f92565b9250827fffffffffffffffffffffffffffffffffffffffffffffffffffffffffffffffff03821115610f3757610f3661108a565b5b828201905092915050565b6000610f4d82610f72565b9050919050565b6000610f5f82610f72565b9050919050565b60008115159050919050565b600073ffffffffffffffffffffffffffffffffffffffff82169050919050565b6000819050919050565b82818337600083830152505050565b60005b83811015610fc9578082015181840152602081019050610fae565b83811115610fd8576000848401525b50505050565b60006002820490506001821680610ff657607f821691505b6020821081141561100a576110096110b9565b5b50919050565b6110198261112b565b810181811067ffffffffffffffff82111715611038576110376110e8565b5b80604052505050565b600061104c82610f92565b91507fffffffffffffffffffffffffffffffffffffffffffffffffffffffffffffffff82141561107f5761107e61108a565b5b600182019050919050565b7f4e487b7100000000000000000000000000000000000000000000000000000000600052601160045260246000fd5b7f4e487b7100000000000000000000000000000000000000000000000000000000600052602260045260246000fd5b7f4e487b7100000000000000000000000000000000000000000000000000000000600052604160045260246000fd5b600080fd5b600080fd5b600080fd5b600080fd5b6000601f19601f8301169050919050565b61114581610f42565b811461115057600080fd5b50565b61115c81610f92565b811461116757600080fd5b5056fea26469706673582212203a7dbe95df08097e7fc63a2a239374859cddf49f21dde634f082d83a90ab465864736f6c63430008060033",
  "immutableReferences": {},
  "source": "// SPDX-License-Identifier: MIT\npragma solidity >=0.4.21 <8.10.0;\n\ncontract Donation {\n\n  uint public nPosts;\n  struct Post{\n      uint id;\n      uint amount_needed;\n      uint amount_raised;\n      string title;\n      string content;\n      string photo_url;\n      address payable reciever;\n  }\n\n  mapping(address => Post) public posts;\n\n  mapping(address => bool) public havePost;\n\n  error noPostForAddress();\n\n  function donate(address reciever, uint amount) public {\n    if (!havePost[msg.sender]){\n      revert noPostForAddress();\n    }\n    payable(reciever).transfer(amount);\n    posts[reciever].amount_raised += amount;\n  }\n\n\n  error cannotCreateMultiplePost();\n  function makePost(uint amount_needed, string memory title, string memory content, string memory photo_url) public {\n    if (havePost[msg.sender]){\n      revert cannotCreateMultiplePost();\n    }\n    nPosts++;\n    Post memory post = Post(nPosts, amount_needed, 0, title, content, photo_url, payable(msg.sender));\n    posts[msg.sender] = post;\n    havePost[msg.sender] = true;\n  }\n  \n  function get(address usr) public view returns (uint id, string memory title, string memory content,\n    string memory photo_url, address payable reciever) {\n    if (!havePost[usr]) {\n      revert noPostForAddress();\n    }\n    id = posts[usr].id;\n    title = posts[usr].title;\n    content = posts[usr].content;\n    photo_url = posts[usr].photo_url;\n    reciever = posts[usr].reciever;\n  }\n  constructor() {\n    nPosts = 0;\n  }\n}",
  "sourcePath": "/home/hongzhe/BitFund/contracts/Donation.sol",
  "compiler": {
    "name": "solc",
    "version": "0.8.6+commit.11564f7e.Emscripten.clang"
  },
  "schemaVersion": "3.4.7",
  "updatedAt": "2022-04-17T05:03:41.451Z",
  "devdoc": {
    "kind": "dev",
    "methods": {},
    "version": 1
  },
  "userdoc": {
    "kind": "user",
    "methods": {},
    "version": 1
  }
}